:020000040800F2
:1000000000800120B5390008053A0008053A0008CB
:10001000053A0008053A0008053A0008000000000B
:100020000000000000000000000000002D39000862
:10003000053A0008000000002F3900083139000897
:10004000053A0008053A0008053A0008053A000894
:10005000053A0008053A00083D390008053A00084D
:10006000053A0008053A0008053A0008053A000874
:10007000053A0008053A0008053A0008053A000864
:10008000053A0008053A0008053A0008000000009B
:10009000000000000000000000000000053A000819
:1000A000053A0008053A0008053A0008053A000834
:1000B00049390008053A0008053A0008053A0008E1
:1000C000053A0008053A0008053A0008053A000814
:1000D000053A000859390008053A000800000000F8
:1000E000053A0008053A0008053A0008000000003B
:1000F000000000000000000000000000053A0008B9
:1001000000000000053A0008053A0008053A00081A
:1001100000000000000000000000000000000000DF
:10012000053A0008053A0008053A0008053A0008B3
:10013000053A000800000000000000000000000078
:10014000000000000000000000000000053A000868
:10015000053A0008053A0008053A0008053A000883
:10016000053A0008053A0008000000000000000001
:10017000000000000000000000000000000000007F
:1001800000000000053A0008000000000000000028
:04019000053A000824
:1001A00010B5054C237833B9044B13B10448AFF3B1
:1001B00000800123237010BDC0000020000000005B
:1001C0007C42000808B5034B1BB103490348AFF359
:1001D000008008BD00000000C40000207C42000830
:1001E00053B94AB9002908BF00281CBF4FF0FF319E
:1001F0004FF0FF3000F072B9ADF1080C6DE904CE9C
:1002000000F006F8DDF804E0DDE9022304B07047F1
:100210002DE9F047089E04468846002B4BD18A42C0
:10022000154667D9B2FA82F24AB1C2F1200701FA43
:1002300002F320FA07F7954047EA030894404FEA93
:10024000154E230CB8FBFEF71FFA85FC0EFB178832
:1002500043EA084307FB0CF1994209D9EB1807F16F
:10026000FF3080F01B81994240F21881023F2B44FD
:100270005B1AA4B2B3FBFEF00EFB103344EA034456
:1002800000FB0CFCA44509D92C1900F1FF3380F0C8
:100290000781A44540F2048102382C4440EA07401B
:1002A000A4EB0C0400271EB1D4400023C6E9004390
:1002B0003946BDE8F0878B4209D9002E00F0EB806B
:1002C0000027C6E9000138463946BDE8F087B3FA91
:1002D00083F7002F47D18B4202D3824200F2FA808B
:1002E000841A61EB030301209846002EE0D0C6E992
:1002F0000048DDE702B9FFDEB2FA82F2002A40F0E0
:100300008F80491B4FEA154E1FFA85F80127B1FB74
:10031000FEFC230C0EFB1C1143EA014308FB0CF10D
:10032000994207D9EB180CF1FF3002D2994200F242
:10033000CD808446591AA3B2B1FBFEF00EFB101417
:1003400043EA044408FB00F8A04507D92C1900F142
:10035000FF3302D2A04500F2B6801846A4EB080491
:1003600040EA0C409FE7C7F1200CBB4022FA0CFE8C
:100370004EEA030E01FA07F420FA0CF521FA0CF309
:100380004FEA1E482543B3FBF8F92C0C08FB193340
:100390001FFA8EFA44EA034309FB0AF49C4202FA6C
:1003A00007F200FA07F10BD91EEB030309F1FF3046
:1003B00080F087809C4240F28480A9F10209734456
:1003C0001B1BADB2B3FBF8F008FB103345EA034446
:1003D00000FB0AFAA24508D91EEB040400F1FF3322
:1003E0006BD2A24569D90238744440EA0940A0FBA7
:1003F0000289A4EB0A044C45C2464B4654D351D063
:10040000002E69D0B1EB0A0564EB030404FA0CFC7E
:10041000FD40FC404CEA0505C6E90054002747E7CB
:10042000C2F1200320FA03F7954001FA02F021FA05
:1004300003F34FEA154E3843010CB3FBFEF71FFAE6
:1004400085F80EFB173341EA034107FB08F38B42A3
:1004500004FA02F407D9691807F1FF3C2FD28B4246
:100460002DD9023F2944CB1A81B2B3FBFEF00EFB1B
:10047000103341EA034100FB08F38B4207D96918A6
:1004800000F1FF3C17D28B4215D902382944C91A12
:1004900040EA07473BE73746304609E70746E7E6C5
:1004A0001846FBE64145ABD2B8EB020A69EB0E02F7
:1004B00001381346A4E76046E9E7184695E7674622
:1004C000D1E781467CE702382C4447E7ACF1020CC7
:1004D0002B442FE7384608E73746E9E6704700BF68
:1004E00010F8012B11F8013B012A28BF9A42F7D0DE
:1004F000D01A7047034613F8012B002AFBD1181AB3
:1005000001387047000000000000000000000000FB
:1005100001F0FF01102A2BDB10F0070F08D010F8B4
:10052000013B013A8B422DD010F0070F42B3F6D1B8
:10053000F0B441EA012141EA014122F007047FF0D1
:1005400000070023F0E80256083C85EA010586EA28
:10055000010685FA47F5A3FA87F586FA47F6A5FA64
:1005600087F68EB9EED1F0BC01F0FF0102F0070270
:1005700032B110F8013B013A83EA010313B1F8D11B
:100580000020704701387047002D06BF35460338FC
:10059000073815F0010F07D1013015F4807F02BF35
:1005A000013015F4C03F0130F0BC0138704700BF86
:1005B00010B504460E4B18784FF47A73B3FBF0F382
:1005C0000C4A1068B0FBF3F000F0A8F868B90F2CE3
:1005D00001D901200AE0002221464FF0FF3000F04F
:1005E0005DF8034B5C60002000E0012010BD00BFFF
:1005F000000000205800002008B50B4B1A6842F498
:1006000000721A601A6842F480621A601A6842F432
:1006100080721A60032000F02FF80020FFF7C8FF57
:1006200003F06EF8002008BD003C0240034A116848
:10063000034B1B780B441360704700BFA8010020D8
:1006400000000020014B1868704700BFA80100207F
:1006500038B50446FFF7F6FF0546B4F1FF3F02D078
:10066000044B1B781C44FFF7EDFF401BA042FAD35C
:1006700038BD00BF00000020074AD36823F4E063C0
:100680001B041B0C000200F4E060184340F0BF6044
:1006900040F40030D060704700ED00E030B4174BFC
:1006A000DB68C3F30223C3F10704042C28BF04242E
:1006B0001D1D062D18D9033B4FF0FF3505FA04F434
:1006C00021EA0401994005FA03F322EA03031943DE
:1006D00000280BDB0901C9B200F1604000F5614060
:1006E00080F8001330BC70470023E5E700F00F00EE
:1006F0000901C9B2024B1954F4E700BF00ED00E054
:1007000014ED00E000F01F02400901239340024A6B
:1007100042F82030704700BF00E100E00138B0F13E
:10072000807F0AD2064B5860064AF02182F82310D7
:100730000020986007221A6070470120704700BFB0
:1007400010E000E000ED00E0042805D0054A136841
:1007500023F0040313607047024A136843F0040354
:100760001360704710E000E0704708B5FFF7FCFF2A
:1007700008BD90F83530DBB2022B03D080234365EF
:1007800001207047052380F835300268136823F094
:10079000010313600020704700230F2B00F2C58077
:1007A000F0B482B039E0042200E00022B2403A43C3
:1007B00002345E4E46F824205D4A1468EA4302EA99
:1007C00004064F6817F4803F01D045EA0406584CF0
:1007D0002660646802EA04064F6817F4003F01D0FF
:1007E00045EA0406524C6660A46802EA04064F68B3
:1007F00017F4801F01D045EA04064D4CA660E4685A
:1008000022404E6816F4001F01D045EA0402484C0D
:10081000E26001330F2B00F2858001229A400C68C0
:1008200004EA0205AA42F4D14C68022C01D0122C31
:1008300010D1DE08083650F826C003F00704A700E0
:100840000F24BC402CEA040C0C69BC4044EA0C04A4
:1008500040F8264004685F000326BE40F64306EADF
:10086000040C4C6804F00304BC4044EA0C0404602B
:100870004C6804F1FF3CBCF1010F03D9112C01D0ED
:10088000122C10D1846806EA040CCC68BC4044EAFF
:100890000C048460446824EA02024C68C4F3001427
:1008A0009C4014434460C26816408A68BA40324390
:1008B000C2604A6812F0805FABD0002201921D4AEC
:1008C000546C44F480445464526C02F480420192AB
:1008D000019A9C08A61C154A52F8267003F00302E0
:1008E00096000F22B24027EA0207134A90423FF4D3
:1008F0005CAF02F5806290420ED002F580629042B9
:100900000CD002F5806290420AD002F580629042DB
:100910003FF449AF072249E7012247E7022245E7B2
:10092000032243E702B0F0BC704770470038014033
:10093000003C0140003802400000024012B90904A6
:10094000816170478161704708B5054B5B6903425F
:1009500000D108BD024B586102F07AFCF9E700BFF4
:10096000003C0140002800F0BB8170B582B0044615
:10097000036813F0010F3BD0A74B9B6803F00C03F7
:10098000042B2CD0A44B9B6803F00C03082B21D024
:100990006368B3F5803F4FD0B3F5A02F52D09E4B84
:1009A0001A6822F480321A601A6822F480221A60CF
:1009B0006368002B50D0FFF745FE0546964B1B6839
:1009C00013F4003F14D1FFF73DFE401B6428F5D916
:1009D00003208AE1904B5B6813F4800FD8D08E4BD4
:1009E0001B6813F4003F03D06368002B00F07A818A
:1009F000236813F0020F55D0874B9B6813F00C0F40
:100A00003ED0854B9B6803F00C03082B33D0E36882
:100A1000002B68D0814B01221A60FFF713FE0546B8
:100A20007D4B1B6813F0020F54D1FFF70BFE401BE8
:100A30000228F5D9032058E1774A136843F480333C
:100A40001360B5E7744B1A6842F480221A601A6882
:100A500042F480321A60ABE7FFF7F4FD05466E4BB7
:100A60001B6813F4003FC3D0FFF7ECFD401B642864
:100A7000F5D9032039E1684B5B6813F4800FC6D1C8
:100A8000654B1B6813F0020F04D0E368012B01D003
:100A900001202AE1604A136823F0F803216943EA40
:100AA000C1031360236813F0080F40D0636963B378
:100AB0005B4B01221A60FFF7C5FD0546564B5B6F85
:100AC00013F0020F33D1FFF7BDFD401B0228F5D90B
:100AD00003200AE1504A136823F0F803216943EA2E
:100AE000C1031360DEE74D4B00221A60FFF7AAFD39
:100AF0000546494B1B6813F0020FD3D0FFF7A2FD48
:100B0000401B0228F5D90320EFE0454B00221A6074
:100B1000FFF798FD0546404B5B6F13F0020F06D0C0
:100B2000FFF790FD401B0228F5D90320DDE0236884
:100B300013F0040F79D0384B1B6C13F0805F33D166
:100B400000230193344B1A6C42F080521A641B6CE0
:100B500003F080530193019B0125324B1B6813F472
:100B6000807F23D0A368012B34D0052B38D02A4BAB
:100B70001A6F22F001021A671A6F22F004021A6734
:100B8000A368002B36D0FFF75DFD0646224B1B6F96
:100B900013F0020F48D1FFF755FD801B41F2883357
:100BA0009842F3D90320A0E00025D6E71D4A136838
:100BB00043F480731360FFF745FD0646194B1B682D
:100BC00013F4807FCED1FFF73DFD801B0228F5D9BD
:100BD00003208AE0104A136F43F001031367CFE745
:100BE0000D4B1A6F42F004021A671A6F42F00102AD
:100BF0001A67C5E7FFF726FD0646074B1B6F13F084
:100C0000020F11D0FFF71EFD801B41F2883398427E
:100C1000F3D9032069E000BF0038024000004742DA
:100C2000800E474200700040E5B9A369002B5BD0FD
:100C3000304A926802F00C02082A58D0022B17D0D2
:100C40002D4B00221A60FFF7FDFC0446294B1B6860
:100C500013F0007F42D0FFF7F5FC001B0228F5D906
:100C6000032042E0234A136C23F080531364DCE733
:100C7000214B00221A60FFF7E5FC05461D4B1B685F
:100C800013F0007F06D0FFF7DDFC401B0228F5D9EA
:100C900003202AE0E369226A1343626A43EA82136B
:100CA000A26A5208013A43EA0243E26A43EA026353
:100CB000104A5360104B01221A60FFF7C3FC044630
:100CC0000C4B1B6813F0007F06D1FFF7BBFC001B29
:100CD0000228F5D9032008E0002006E0002004E007
:100CE00001207047012000E0002002B070BD01200B
:100CF000FBE700BF0038024060004742324B9B6870
:100D000003F00C03042B5CD0082B01D02F48704754
:100D10002DE9F04B2C4B5A6802F03F025B6813F44C
:100D2000800F2BD0284B5B68C3F388131E46002727
:100D30005C010025E41A65EB0705A90141EA94610D
:100D4000A001001B61EB0501CB0043EA5073C40016
:100D5000A01943EB07014B0243EAD053440220465B
:100D600019460023FFF73CFA174B5B68C3F30143B6
:100D700001335B00B0FBF3F0BDE8F08B124B5B6816
:100D8000C3F388131E4600275C010025E41A65EBB7
:100D90000705A90141EA9461A001001B61EB05016F
:100DA000CB0043EA5073C400A01943EB07018B0248
:100DB00043EA90538402204619460023FFF710FAB5
:100DC000D2E70348704700BF003802400024F40017
:100DD00000127A00002800F09D8070B504464F4B49
:100DE0001B6803F00F038B4209D2CBB24B4A13703E
:100DF000136803F00F038B4201D0012070BD2368FC
:100E000013F0020F17D013F0040F04D0444A936874
:100E100043F4E0539360236813F0080F04D0404A72
:100E2000936843F4604393603D4A936823F0F00372
:100E3000A068034393600D46236813F0010F32D07E
:100E40006368012B21D09A1E012A25D9344A1268E1
:100E500012F0020F60D032498A6822F00302134375
:100E60008B60FFF7EFFB06462D4B9B6803F00C03EE
:100E70006268B3EB820F16D0FFF7E4FB801B41F2F0
:100E800088339842F0D90320B8E7254A126812F453
:100E9000003FE0D10120B1E7214A126812F0007F43
:100EA000D9D10120AAE71D4B1B6803F00F03AB4209
:100EB00009D9EAB2194B1A701B6803F00F03AB4251
:100EC00001D001209AE7236813F0040F06D0144ADA
:100ED000936823F4E053E1680B439360236813F0B5
:100EE000080F07D00E4A936823F46043216943EA50
:100EF000C1039360FFF702FF094B9B68C3F3031321
:100F0000084AD35CD840084B18600020FFF750FB1C
:100F1000002073E70120704701206FE7003C02408A
:100F200000380240A442000858000020014B186815
:100F3000704700BF5800002008B5FFF7F7FF044BCB
:100F40009B68C3F38223034AD35CD84008BD00BF2B
:100F500000380240B442000808B5FFF7E7FF044B31
:100F60009B68C3F34233034AD35CD84008BD00BF3B
:100F700000380240B4420008F8B505460F46164650
:100F80001C463BE02CB1FFF75DFB069BC01AA0425C
:100F900034D32A68536823F0E00353606B68B3F5D9
:100FA000827F0BD0AB6AB3F5005F14D0012385F8C4
:100FB0005130002385F85030032027E0AB68B3F5AB
:100FC000004F02D0B3F5806FECD12A68136823F08C
:100FD00040031360E6E72A68136823F400531B04F8
:100FE0001B0C13602A68136843F400531360DDE799
:100FF0000123B34209D0B4F1FF3FC3D12B689B68F2
:1010000037EA0303F4D00023F3E70020F8BD10B55E
:1010100082B0044600920B4600228021FFF7ACFF0D
:10102000034610B9184602B010BD636D43F02003AB
:1010300063650323F6E700283BD010B50446002380
:10104000836290F85130002B2ED0022384F8513067
:101050002268136823F0400313606368A268134397
:10106000E26813432269134362691343A26902F4DD
:1010700000721343E2691343226A1343A16A226890
:101080000B431360638B03F00403616A22680B4314
:1010900053602268D36923F40063D3610020606544
:1010A000012384F8513010BD80F8503002F072FBFB
:1010B000CBE7012070472DE9F04184B01E4690F83F
:1010C0005030012B00F0C88004460D4690460123A5
:1010D00080F85030FFF7B6FA074694F85130DBB28B
:1010E000012B0AD00223012284F85120002284F827
:1010F0005020184604B0BDE8F081002D00F0A48017
:10110000B8F1000F00F0A280032384F851300023CF
:1011100063652563A4F83480A4F83680A363A387AD
:10112000E38763642364A368B3F5004F1BD023688F
:101130001A6812F0400F03D11A6842F040021A6098
:10114000E368B3F5006F14D063681BB1E38E9BB204
:10115000012B3ED1236815F8012B1A73E38E013B56
:101160009BB2E38635E02268136843F48043136042
:10117000DDE763681BB1E38E9BB2012B0DD12368C1
:1011800035F8022BDA60E38E013B9BB2E38604E084
:10119000002E5DD0B6F1FF3F0FD1E38E9BB27BB343
:1011A00023689A6812F0020FF2D035F8022BDA6049
:1011B000E38E013B9BB2E386EFE7FFF743FAC01BE8
:1011C000B042EAD303238EE7002E43D0B6F1FF3FAF
:1011D0000FD1E38E9BB29BB123689A6812F0020F85
:1011E000F2D015F8012B1A73E38E013B9BB2E38614
:1011F000EFE7FFF727FAC01BB042EAD3032372E7F9
:1012000000973346012202212046FFF7B5FE08B1C0
:10121000032368E73A4631462046FFF7F8FE0346C7
:1012200018B12023636501235DE7A26832B90392F8
:101230002268D168039192680392039A626D002A32
:101240003FF451AF01234EE701234CE701234AE766
:10125000032348E7032346E702234AE72DE9F04347
:1012600085B099460C9D90F85030012B00F010810C
:1012700004460F461646012380F85030FFF7E2F986
:10128000804694F85130DBB26268012B15D0B2F57C
:10129000827F0AD00223012284F85120002284F8A0
:1012A0005020184605B0BDE8F083A268002A40F03F
:1012B000E780042B01D00223EDE7002F00F0E2804D
:1012C000002E00F0E180B9F1000F00F0DF8094F80B
:1012D0005130DBB2012B2BD000236365A663A4F849
:1012E0003E90A4F83C902763A4F83690A4F834907C
:1012F0002364636423681A6812F0400F03D11A68EC
:1013000042F040021A60E368B3F5006F14D06368DE
:101310001BB1E38E9BB2012B07D1236817F8012B79
:101320001A73E38E013B9BB2E3864FF0010961E043
:10133000052384F85130CFE763681BB1E38E9BB27D
:10134000012B07D1236837F8022BDA60E38E013BCB
:101350009BB2E3864FF0010913E0E38F9BB26BB1C0
:1013600023689A6812F0010F08D0DB6826F8023B68
:10137000E38F013B9BB2E3874FF00109B5F1FF3FDB
:101380001CD1E38E9BB21BB9E38F9BB2002B55D0CF
:10139000B9F1000FE1D0E38E9BB2002BDDD02368C2
:1013A0009A6812F0020FD8D037F8022BDA60E38E79
:1013B000013B9BB2E3864FF00009CEE7FFF742F90D
:1013C000A0EB0800A842DCD3032364E7E38F9BB2C1
:1013D0006BB123689A6812F0010F08D0DB68337094
:1013E000E38F013B9BB2E38701364FF00109B5F172
:1013F000FF3F1BD1E38E9BB213B9E38F9BB2EBB1DE
:10140000B9F1000FE2D0E38E9BB2002BDED023684F
:101410009A6812F0020FD9D03A781A73E38E013B22
:101420009BB2E38601374FF00009CFE7FFF70AF9D7
:10143000A0EB0800A842DDD303232CE7CDF8008001
:101440002B46012202212046FFF796FD08B1032317
:1014500021E7424629462046FFF7D9FD034618B149
:1014600020236365012316E7A268002A7FF413AFE7
:1014700003922268D168039192680392039A0AE763
:10148000022308E7012306E7012304E7012302E71B
:10149000022306E72DE9F04182B004460D461746C7
:1014A0001E464368B3F5827F19D094F85030012B63
:1014B00000F0A280012384F85030FFF7C3F8804683
:1014C00094F85130DBB2012B15D00220012384F8AF
:1014D0005130002384F8503002B0BDE8F0818368B9
:1014E000002BE2D1042380F85130009613460A46BF
:1014F000FFF7B4FEF0E7002D74D0002F74D0042362
:1015000084F8513000236365A563A787E7872363C9
:10151000A386E38623646364A368B3F5004F0BD00E
:1015200023681A6812F0400F03D11A6842F0400293
:101530001A60E3685BB128E02268136823F48043F3
:101540001360EDE7002E51D0B6F1FF3F10D1E38FCD
:101550009BB2002B31D023689A6812F0010FF1D0B2
:101560001B7B05F8013BE38F013B9BB2E387EEE772
:10157000FFF768F8A0EB0800B042E8D30320A5E726
:10158000002E35D0B6F1FF3F0FD1E38F9BB2A3B150
:1015900023689A6812F0010FF2D0DB6825F8023B4D
:1015A000E38F013B9BB2E387EFE7FFF74BF8A0EB3C
:1015B0000800B042E9D3032088E76368B3F5827F6F
:1015C00003D0636DB3B9002080E7A368B3F5004F83
:1015D00002D0B3F5806FF4D12268136823F0400382
:1015E0001360EEE7012071E701206FE703206DE74C
:1015F00003206BE7012069E702206DE770B4036AFE
:1016000023F001030362036A4268846924F07304CF
:101610000D6845EA040623F002048B6823430B4D52
:10162000A84206D0426086614A684263036270BC89
:10163000704723F00803CC68234323F0040322F40B
:1016400040724C6914438A692243EBE70000014071
:1016500030B4036A23F480730362036A4268C46986
:1016600024F073040D682C4323F400738D6843EA5F
:1016700005230D4DA84206D04260C4614A68C2638A
:10168000036230BC704723F40063CD6843EA05234E
:1016900023F4806322F440524D6942EA05128D69B9
:1016A00042EA0512E8E700BF0000014030B4036AD7
:1016B00023F480530362036A4468C26922F4E64259
:1016C0000D6842EA052223F400538D6843EA05338E
:1016D000074DA84206D04460C2614A6802640362B2
:1016E00030BC704724F480444D6944EA8514F2E725
:1016F0000000014010B4036A046A24F0010404628B
:10170000846924F0F00444EA021223F00A030B4334
:10171000826103625DF8044B704710B4036A23F0E2
:10172000100303628469036A24F4704444EA0232B9
:1017300023F0A00343EA0113826103625DF8044BC6
:101740007047836823F0700341F0070119438160FB
:10175000704710B4846824F47F4442EA03230B43A7
:10176000234383605DF8044B70470268D36843F0FD
:101770000103D3600268136843F001031360002083
:10178000704790F83830012B7DD010B50446012306
:1017900080F83830022380F839300268936823F4E7
:1017A0007F4323F0770393600B68402B57D010D909
:1017B000702B3ED01FD8502B47D0602B32D1CA6837
:1017C00049680068FFF7A9FF60212068FFF7B9FFAB
:1017D00028E0102B4DD008D9202B4FD0302B21D111
:1017E00030210068FFF7ADFF1CE0DBB90021006885
:1017F000FFF7A7FF16E0B3F5805F0ED0B3F5005FEB
:1018000010D1CB684A6889680068FFF7A2FF226898
:10181000936843F48043936004E00268936823F084
:1018200007039360012384F83930002084F83800DE
:1018300010BDCB684A6889680068FFF78AFF226894
:10184000936843F077039360ECE7CA6849680068DF
:10185000FFF750FF50212068FFF773FFE2E7CA68E7
:1018600049680068FFF746FF40212068FFF769FFDD
:10187000D8E710210068FFF764FFD3E72021006854
:10188000FFF75FFFCEE70220704770477047704751
:10189000704710B5044603681A6912F0020F11D0A0
:1018A000DA6812F0020F0DD06FF002021A61012304
:1018B000037603689B6913F0030F70D0FFF7E6FF10
:1018C0000023237623681A6912F0040F12D0DA6815
:1018D00012F0040F0ED06FF004021A610223237677
:1018E00023689B6913F4407F5FD02046FFF7CEFF4B
:1018F0000023237623681A6912F0080F12D0DA68E1
:1019000012F0080F0ED06FF008021A61042323763C
:101910002368DB6913F0030F4ED02046FFF7B6FFB4
:101920000023237623681A6912F0100F12D0DA68A8
:1019300012F0100F0ED06FF010021A6108232376F8
:101940002368DB6913F4407F3DD02046FFF79EFFFC
:101950000023237623681A6912F0010F03D0DA6896
:1019600012F0010F36D123681A6912F0800F03D0EC
:10197000DA6812F0800F34D123681A6912F0400F30
:1019800003D0DA6812F0400F32D123681A6912F0DE
:10199000200F03D0DA6812F0200F30D110BDFFF70E
:1019A00074FF2046FFF773FF8AE72046FFF76DFFBD
:1019B0002046FFF76CFF9BE72046FFF766FF2046B7
:1019C000FFF765FFACE72046FFF75FFF2046FFF714
:1019D0005EFFBDE76FF001021A61204601F078FC5E
:1019E000C1E76FF080021A61204600F0D5F9C3E725
:1019F0006FF040021A612046FFF74AFFC5E76FF01B
:101A000020021A61204600F0C6F9C7E70368234A9E
:101A100090420ED0B0F1804F0BD0A2F57C429042A4
:101A200007D002F58062904203D002F580629042B6
:101A300003D123F070034A681343184A90421AD026
:101A4000B0F1804F17D0A2F57C42904213D002F53E
:101A5000806290420FD002F5806290420BD002F576
:101A60009A32904207D002F58062904203D002F58C
:101A70008062904203D123F44073CA681343036029
:101A80008B68C3620B688362044B984202D00123C7
:101A9000436170470B690363F9E700BF0000014031
:101AA000A8B110B5044690F839305BB1022384F830
:101AB0003930211D2068FFF7A9FF012384F8393050
:101AC000002010BD80F8383001F0A4FEEEE70120C0
:101AD0007047A8B110B5044690F839305BB10223C5
:101AE00084F83930211D2068FFF790FF012384F826
:101AF0003930002010BD80F8383001F073FEEEE779
:101B00000120704730B4036A23F010030362036AB4
:101B10004468826922F4E6420D6842EA052223F015
:101B200020038D6843EA05130C4DA84206D044609B
:101B300082614A688263036230BC704723F080038D
:101B4000CD6843EA051323F0400324F440644D6953
:101B500044EA85048D6944EA8504E8E70000014011
:101B600038B590F83830012B66D00D460446012375
:101B700080F83830022380F839300C2A1AD8DFE890
:101B800002F00719191920191919341919194700E0
:101B90000068FFF733FD2268936943F008039361FF
:101BA0002268936923F00403936122689369296989
:101BB0000B439361012384F83930002084F8380006
:101BC00038BD0068FFF79EFF2268936943F4006305
:101BD00093612268936923F4806393612268936917
:101BE000296943EA01239361E4E70068FFF730FDC8
:101BF0002268D36943F00803D3612268D36923F0D4
:101C00000403D3612268D36929690B43D361D1E707
:101C10000068FFF74BFD2268D36943F40063D3618A
:101C20002268D36923F48063D3612268D369296968
:101C300043EA0123D361BDE70220C1E710B40123C9
:101C400003FA01F4036A23EA04030362036A8A4085
:101C5000134303625DF8044B7047000010B504465F
:101C600001220068FFF7EAFF2368074A934206D083
:101C70002268136843F001031360002010BD5A6C02
:101C800042F400425A64F3E70000014010B50446F4
:101C900000220068FFF7D2FF2368134A934213D053
:101CA0002368196A41F21112114208D1196A40F2EF
:101CB0004442114203D11A6822F001021A60012342
:101CC00084F83930002010BD196A41F21112114216
:101CD000E6D1196A40F244421142E1D15A6C22F431
:101CE00000425A64DCE700BF0000014090F8383041
:101CF000012B22D030B4012280F83820022380F852
:101D000039300468636823F07003636004686368B3
:101D10000D682B4363600468A36823F08003A3600D
:101D20000468A36849680B43A36080F83920002346
:101D300080F83830184630BC70470220704790F861
:101D40003830012B25D0012380F83830CB6823F4BC
:101D500040738A68134323F480634A68134323F46F
:101D600000630A68134323F480530A69134323F47E
:101D700000534A69134323F480438A69134323F4CD
:101D80000043134302685364002380F83830184638
:101D9000704702207047704770470268D36823F489
:101DA0009073D3600268536923F0010353612023C9
:101DB00080F83A30704790F83930DBB2212B2AD1C5
:101DC0008368B3F5805F16D0036A5A1C02621A78E2
:101DD00003685A60C38C013B9BB2C384EBB90268B1
:101DE000D36823F08003D3600268D36843F04003D4
:101DF000D36000207047036A1B880268C3F308039E
:101E0000536003691BB9036A02330362E2E7036AA2
:101E100001330362DEE702207047002070470000B4
:101E20002DE9F843044601680A6922F44052C36868
:101E300013430B610168CA6822F4164222F00C02B7
:101E400083680069034360690343E0690343134304
:101E5000CB6021684A6922F44072A36913434B6145
:101E6000E369B3F5004F60D02368B84A934200F0AD
:101E7000148102F58062934200F00F81FFF75CF855
:101E800000EB800000EB80006568AD00B0FBF5F56D
:101E9000AF4FA7FB05356D092E01FFF74DF800EB9D
:101EA000800000EB80006568AD00B0FBF5F9FFF73E
:101EB00043F800EB800000EB80006568AD00B0FBEC
:101EC000F5F5A7FB05356D094FF0640808FB15957E
:101ED0002D013235A7FB05356D0905F0F0053544B8
:101EE000FFF72AF800EB800000EB80006668B60080
:101EF000B0FBF6F6FFF720F800EB800000EB800067
:101F000063689B00B0FBF3F0A7FB0030400908FBBF
:101F100010684FEA081808F13208A7FB0837C7F322
:101F2000431723682F449F600DE12368874A93423B
:101F30005BD002F58062934257D0FEF7FDFF00EBC5
:101F4000800000EB800065686D00B0FBF5F5804F08
:101F5000A7FB05356D092E01FEF7EEFF00EB8000B3
:101F600000EB800065686D00B0FBF5F9FEF7E4FF5B
:101F700000EB800000EB800065686D00B0FBF5F5BC
:101F8000A7FB05356D094FF0640808FB1595ED00BA
:101F90003235A7FB05356D096D0005F4F87535443C
:101FA000FEF7CAFF00EB800000EB80006668760059
:101FB000B0FBF6F6FEF7C0FF00EB800000EB800000
:101FC00063685B00B0FBF3F3A7FB03235B0908FB2B
:101FD00013684FEAC80808F13208A7FB0837C7F3AF
:101FE000421723682F449F60ADE0FEF7B5FF00EB7A
:101FF000800000EB800065686D00B0FBF5F5544F84
:10200000A7FB05356D092E01FEF7A6FF00EB80004A
:1020100000EB800065686D00B0FBF5F9FEF79CFFF2
:1020200000EB800000EB800065686D00B0FBF5F50B
:10203000A7FB05356D094FF0640808FB1595ED0009
:102040003235A7FB05356D096D0005F4F87535448B
:10205000FEF782FF00EB800000EB800066687600F0
:10206000B0FBF6F6FEF778FF00EB800000EB800097
:1020700063685B00B0FBF3F3A7FB03235B0908FB7A
:1020800013684FEAC80808F13208A7FB0837C7F3FE
:10209000421723682F449F6055E0FEF75DFF00EB79
:1020A000800000EB80006568AD00B0FBF5F5284FBF
:1020B000A7FB05356D092E01FEF74EFF00EB8000F2
:1020C00000EB80006568AD00B0FBF5F9FEF744FF5A
:1020D00000EB800000EB80006568AD00B0FBF5F51B
:1020E000A7FB05356D094FF0640808FB15952D0118
:1020F0003235A7FB05356D0905F0F0053544FEF7CF
:102100002BFF00EB800000EB80006668B600B0FBA0
:10211000F6F6FEF721FF00EB800000EB800063681D
:102120009B00B0FBF3F0A7FB0030400908FB1068F0
:102130004FEA081808F13208A7FB0837C7F343171E
:1021400023682F449F60BDE8F88300BF0010014062
:102150001F85EB512DE9F04105460F46164698467E
:10216000069C2B681B6837EA03030CBF012300237E
:10217000B3421DD1B4F1FF3FF3D02CB1FEF762FAA8
:10218000A0EB0800A042ECD92A68D36823F4D073EE
:10219000D3602A68536923F001035361202385F833
:1021A000393085F83A30002385F83830032000E0D4
:1021B0000020BDE8F08158B310B5044690F83930DE
:1021C0000BB3242384F839302268D36823F40053F6
:1021D000D3602046FFF724FE2268136923F490435E
:1021E00013612268536923F02A0353612268D3687C
:1021F00043F40053D3600020E063202384F8393097
:1022000084F83A3010BD80F8383001F03DFBD8E753
:10221000012070472DE9F04182B01E4690F8393018
:10222000DBB2202B55D104460D469046002955D0EF
:10223000002A55D090F83830012B53D0012380F874
:1022400038300023C363212380F83930FEF7FAF9D0
:102250000746A4F82480A4F8268010E000963B46A8
:10226000002280212046FFF775FF00283CD12B88F3
:102270002268C3F3080353602369C3B90235E38CB2
:102280009BB2B3B1E38C013B9BB2E384A368B3F58B
:10229000805FE3D000963B46002280212046FFF776
:1022A00059FF18BB2A7823685A600135E7E70135E2
:1022B000E5E700963B46002240212046FFF74AFF13
:1022C0000346A8B9202284F83920002284F8382057
:1022D00000E00223184602B0BDE8F0810123F9E7CF
:1022E0000123F7E70223F5E70323F3E70323F1E7ED
:1022F0000323EFE790F83A30DBB2202B1BD1E1B19A
:10230000EAB190F83830012B1BD081628285C285FA
:102310000023C363222280F83A2080F83830016815
:102320004A6942F001024A610168CA6842F4907247
:10233000CA6018467047022070470120704701208C
:10234000704702207047704708B50168CB6823F0DA
:102350004003CB60202380F83930FFF7F4FF0020E2
:1023600008BD08B590F83A30DBB2222B40D1836823
:10237000B3F5805F0ED0036903BB03685A68836AB4
:10238000591C81621A70C38D013B9BB2C385F3B1A6
:1023900000202EE0826A036943B903685B68C3F3D7
:1023A00008031380836A02338362ECE703685B6887
:1023B000DBB21380836A01338362E4E703685B68FE
:1023C000826A511C816203F07F031370DBE70268AD
:1023D000D36823F49073D3600268536923F0010338
:1023E0005361202380F83A3000F016FF002000E00F
:1023F000022008BD7047000010B50446026813684B
:10240000D168526913F00F0005D113F0200F02D0EC
:1024100011F0200F53D1002867D012F0010202D131
:1024200011F4907F61D013F0010F06D011F4807F7A
:1024300003D0E06B40F00100E06313F0040F04D020
:102440001AB1E06B40F00200E06313F0020F04D019
:102450001AB1E06B40F00400E06313F0080F04D001
:102460001AB1E26B42F00802E263E26B002A48D044
:1024700013F0200F02D011F0200F24D123685B69E4
:1024800003F04003E26B12F0080F00D13BB320468B
:10249000FFF783FC23685A6912F0400F1BD05A697A
:1024A00022F040025A61636B8BB11A4A1A65606B65
:1024B000FEF75FF928B3606B036D984721E0204673
:1024C000FFF74FFF1DE02046FFF74BFFD6E7204602
:1024D000FFF790FF15E02046FFF78CFF11E0204644
:1024E000FFF788FF0023E3630BE013F0800F02D0B7
:1024F00011F0800F06D113F0400F02D011F0400F01
:1025000004D110BD2046FFF756FCFAE72046FFF73E
:102510001BFFF6E71925000808B5806B0023C3856B
:10252000C384FFF767FF08BD38B50446074B5D68F5
:10253000FEF7FCFC064BA3FB0030800C04FB00F410
:10254000024B5B685B1BA342FAD338BD001000E06E
:1025500083DE1B4308B530B9064B00221988586842
:10256000FEF7ECF908BD034B012219885868FEF705
:10257000E5F9F7E7E000002008B530B9064B002286
:1025800019895868FEF7DAF908BD034B0122198949
:102590005868FEF7D3F9F7E7E000002010B582B0E5
:1025A00004460020FFF7D6FF04F01F0402A901F83B
:1025B000044D0A4C642301222046FEF77CFD64236F
:1025C00001220DF105012046FEF764FF9DF805404C
:1025D0000120FFF7BFFF204602B010BDEC00002035
:1025E00070B582B004460D4616460020FFF7B2FFD4
:1025F00004F01F0402A901F8044D084C64230122D1
:102600002046FEF758FD6423324629462046FEF751
:1026100041FF0120FFF79EFF02B070BDEC000020DB
:1026200030B583B004460D460020FFF793FF44F019
:1026300020048DF804408DF805506423022201A97E
:102640000348FEF738FD0120FFF784FF03B030BDDB
:10265000EC00002070B582B004460D4616460020FE
:10266000FFF778FF44F0200402A901F8044D084C5C
:10267000642301222046FEF71EFD642332462946CC
:102680002046FEF718FD0120FFF764FF02B070BD81
:10269000EC00002008B5FF21E120FFF7C1FF08BDD5
:1026A00008B5FF21E220FFF7BBFF08BD08B50720F2
:1026B000FFF774FF08BD000008B50020FFF76EFFAC
:1026C00040F00301C9B20020FFF7AAFF0A4BD3E98B
:1026D0001A2313430AD1FFF7DDFFFFF7E1FF0120C3
:1026E000FFF74AFF9620FFF71FFF08BD05220349A9
:1026F0000A20FFF7AFFFEEE7E000002048010020CE
:1027000010B582B0CDE90023044620B9154BDDE9B0
:102710000001C3E91A01062C1AD8012C1AD901228A
:102720006946114B185DFFF795FF0F4B23440D4A87
:1027300092F87010187AFFF773FF0220FFF72EFF50
:1027400040B20121A1400143C9B20220FFF768FF56
:1027500002B010BD05226946034B185DFFF77AFFF2
:10276000E3E700BFE00000209442000808B501F054
:102770000F0141EA0011C9B20420FFF751FF08BD63
:1027800008B501467F2828BF7F210520FFF748FFB5
:1027900008BD0000202828BF2020024B83F87000CD
:1027A000704700BFE0000020014B93F870007047B5
:1027B000E000002070B582B006460D46FFF7F4FF3A
:1027C0000446A84217D80020FFF7C4FE02A96123DF
:1027D00001F8013D094D642301222846FEF76BFCF8
:1027E0006423A2B231462846FEF754FE0120FFF7CB
:1027F000B1FE02B070BD2C46E5E700BFEC00002042
:1028000008B56020FFF7CAFE08BD10B5FFF7D2FF7C
:102810001720FFF7C3FE00F00104FFF741FFFFF7A9
:10282000EFFF204610BD08B51D20FFF7B7FE00F0F2
:10283000FB011D20FFF7F4FE00211C20FFF7F0FE36
:1028400008BD08B520B900210120FFF7E9FE08BD49
:102850003F210120FFF7E4FEF9E710B5044606200A
:10286000FFF79CFE00F0F901032C09D0022C0DD0DB
:10287000012C0ED034B1042C04D141F0060101E04A
:1028800041F006010620FFF7CBFE10BD41F0040128
:10289000F8E741F00201F5E738B505460620FFF7F5
:1028A0007DFE00F0D704022D0CD0012D0DD0214665
:1028B0000620FFF7B5FE0620FFF770FEA04207D006
:1028C000002038BD44F02004F1E744F00804EEE7AE
:1028D0000120F6E710B504460020FFF75FFE00F088
:1028E000F3011CB1012C05D041F00C010020FFF7D1
:1028F00097FE10BD41F00801F8E708B50020FFF78A
:102900004DFE00F0FD010020FFF78AFE08BD70B506
:102910000646FFF7CBFE00F04003002B14BF012555
:1029200000250BD0044616B1C0F34203337040219A
:102930000720FFF775FE14F0200F01D1284670BD67
:1029400020210720FFF76CFEF8E708B50020FFF70D
:10295000DEFF08BD08B570210720FFF761FE08BD46
:1029600000B583B00020FFF7F5FD50238DF804304B
:1029700073238DF805306423022201A90448FEF771
:102980009AFB0120FFF7E6FD03B05DF804FB00BFF2
:10299000EC00002070B5A0B007ACC44D0FCD0FC443
:1029A0000FCD0FC40FCD0FC42B6824F8023B1B0CB6
:1029B000237007A8FDF79EFD0A2382B207A9BC4831
:1029C000FFF728FC0020FFF7E9FD10F0080F00F0EA
:1029D000618210F0040F00F0518207ACB54D0FCDAD
:1029E0000FC495E8070084E8070007A8FDF782FDFB
:1029F000AF4C0A2382B207A92046FFF70BFC012047
:102A0000FFF7CCFDC0F340130393C0F30013029310
:102A1000C0F3C0030193C0F380030093C0F34003ED
:102A200000F00102A44907A801F01EF807A8FDF76D
:102A300061FD0A2382B207A92046FFF7EBFB0220C3
:102A4000FFF7ACFDC0F340130393C0F300130293F0
:102A5000C0F3C0030193C0F380030093C0F34003AD
:102A600000F00102954907A800F0FEFF07A8FDF756
:102A700041FD0A2382B207A92046FFF7CBFB0320C2
:102A8000FFF78CFD00F0030202328D4907A800F029
:102A9000EBFF07A8FDF72EFD0A2382B207A9204607
:102AA000FFF7B8FB0520FFF779FD00F07F028549AD
:102AB00007A800F0D9FF07A8FDF71CFD0A2382B282
:102AC00007A92046FFF7A6FB0620FFF767FD04468F
:102AD00010F0080F00F0E58107AD7B4E0FCE0FC55B
:102AE00096E8030045F8040B25F8021B090C297031
:102AF00007A8FDF7FFFC0A2382B207A96C48FFF77D
:102B000089FBC4F34104002C00F0D881012C00F0B3
:102B1000DC81022C00F0E081032C00F0E78107A8A3
:102B2000FDF7E8FC624C0A2382B207A92046FFF7B2
:102B300071FB052205A90A20FFF752FD9DF8182018
:102B40009DF817309DF816109DF815009DF814504B
:102B50000295019000915D4907A800F085FF07A844
:102B6000FDF7C8FC0A2382B207A92046FFF752FBF3
:102B7000052205A90B20FFF733FD9DF818209DF8CD
:102B800017309DF816109DF815009DF81450029509
:102B9000019000914E4907A800F066FF07A8FDF7D5
:102BA000A9FC0A2382B207A92046FFF733FB0122C2
:102BB00005A90C20FFF714FD9DF81420454907A82E
:102BC00000F052FF07A8FDF795FC0A2382B207A97F
:102BD0002046FFF71FFB012205A90D20FFF700FD8E
:102BE0009DF814203C4907A800F03EFF07A8FDF718
:102BF00081FC0A2382B207A92046FFF70BFB0122C2
:102C000005A90E20FFF7ECFC9DF81420334907A816
:102C100000F02AFF07A8FDF76DFC0A2382B207A97E
:102C20002046FFF7F7FA012205A90F20FFF7D8FC8D
:102C30009DF814202A4907A800F016FF07A8FDF701
:102C400059FC0A2382B207A92046FFF7E3FA0522BE
:102C500005A91020FFF7C4FC9DF818209DF8173037
:102C60009DF816109DF815009DF8145002950190DE
:102C700000911C4907A800F0F7FE07A8FDF73AFCF1
:102C80000A2382B207A92046FFF7C4FA1120FFF7F2
:102C900085FC00F03F02144907A800F0E5FE07A8F4
:102CA000FDF728FC0A2382B220E000BFBC420008E6
:102CB00054010020F04200083C4300088043000813
:102CC000CC430008E8430008FC4300087C440008AB
:102CD000AC440008DC440008044500082C4500080A
:102CE000544500087C450008A845000807A920466F
:102CF000FFF790FA1220FFF751FC00F03F028A49DB
:102D000007A800F0B1FE07A8FDF7F4FB0A2382B282
:102D100007A92046FFF77EFA1320FFF73FFC00F0DB
:102D20003F02824907A800F09FFE07A8FDF7E2FBDB
:102D30000A2382B207A92046FFF76CFA1420FFF796
:102D40002DFC00F03F027A4907A800F08DFE07A88D
:102D5000FDF7D0FB0A2382B207A92046FFF75AFAF3
:102D60001520FFF71BFC00F03F02724907A800F096
:102D70007BFE07A8FDF7BEFB0A2382B207A9204607
:102D8000FFF748FA1620FFF709FC00F03F026A49F6
:102D900007A800F069FE07A8FDF7ACFB0A2382B282
:102DA00007A92046FFF736FA1C20FFF7F7FBC0F310
:102DB00040130393C0F300130293C0F3C0030193C5
:102DC000C0F380030093C0F3400300F001025B49AD
:102DD00007A800F049FE07A8FDF78CFB0A2382B282
:102DE00007A92046FFF716FA1D20FFF7D7FB064676
:102DF00010F0040F00F0818007AC514D0FCD0FC4CF
:102E000095E8030044F8040B218007A8FDF772FB46
:102E10000A2382B207A94B48FFF7FCF916F0020F0C
:102E200078D107AC484D0FCD0FC495E8070003C417
:102E300024F8022B120C227007A8FDF75BFB414E11
:102E40000A2382B207A93046FFF7E4F907AC3F4DE9
:102E50000FCD0FC40FCD0FC40FCD0FC42B6824F8B6
:102E6000023B1B0C237007A8FDF744FB0A2382B228
:102E700007A93046FFF7CEF920B070BD07AC344D3E
:102E80000FCD0FC495E8070003C424F8022B120CE1
:102E90002270AAE507AC2F4D0FCD0FC42B6823601D
:102EA000A3E507AD2C4E0FCE0FC596E8030045F8FD
:102EB000040B25F8021B090C297019E607AC274DF5
:102EC0000FCD0FC42B68236029E607AC244D0FCD2E
:102ED0000FC42B68236022E607AC224D0FCD0FC430
:102EE0002B6824F8023B1B0C237018E607AC1E4D20
:102EF0000FCD0FC42B68238011E607AC1B4D0FCDFF
:102F00000FC495E8030044F8040B24F8021B090CD5
:102F100021707AE707AC164D0FCD0FC495E8070076
:102F200003C4228088E700BFC4450008E0450008CC
:102F3000FC450008184600083446000850460008C2
:102F40009C46000854010020E8460008BC420008E6
:102F50000C43000828430008144400082C440008CF
:102F6000404400085444000868440008B44600087F
:102F7000CC46000882B0F0B583B007460E46154631
:102F800008A941F8043F604C582204F10C0000F0FD
:102F90005FFD6760268025810120FFF7DBFA0020B6
:102FA000FFF7EAFA0520FDF753FB08210020FFF7A1
:102FB00037FB3F210120FFF733FB03210220FFF7FE
:102FC0002FFB03210846FFF72BFB03210420FFF70B
:102FD00027FB02210520FFF723FB0F210620FFF727
:102FE0001FFB0E210720FFF71BFB00210820FFF726
:102FF00017FB00210920FFF713FBE7248DF804409D
:103000008DF803408DF802408DF8014002AD05F8BF
:10301000084D052229460A20FFF71CFBC2238DF824
:1030200004308DF803308DF802308DF801308DF8C2
:103030000030052229460B20FFF70CFBC3210C2092
:10304000FFF7EEFAC4210D20FFF7EAFAC5210E20A2
:10305000FFF7E6FAC6210F20FFF7E2FA8DF80440E9
:103060008DF803408DF802408DF801408DF8004046
:10307000052229461020FFF7EDFA00211120FFF765
:10308000CFFA00211220FFF7CBFA00211320FFF71F
:10309000C7FA00211420FFF7C3FA00211520FFF71B
:1030A000BFFA00211620FFF7BBFAFFF759FC0021F9
:1030B0001C20FFF7B5FA00211D20FFF7B1FAFFF73A
:1030C00069FC0F210846FFF751FB0320FFF7C5FB02
:1030D0000120FFF7E1FB0220FFF7FCFBFFF7A3FB5A
:1030E0002020FFF757FBFFF735FC4C20FFF748FB8C
:1030F000FFF7D0FAFFF7D4FAFFF7FFFB03B0BDE804
:10310000F04002B0704700BFE000002084B030B44F
:1031100002AC84E80F00074C02AD0FCD0FC40FCDF9
:103120000FC40FCD0FC495E80F0084E80F0030BC2A
:1031300004B07047540100200E4BDA6822F0807210
:10314000DA60DA6842F08072DA600B4B1A6822F0BB
:1031500001021A601A6842F001021A6000225A60E5
:1031600000BF00BF00BF5B680BB90120704710466D
:10317000704700BFF0ED00E0001000E070B588B0CF
:1031800000240094204B1A6B42F080021A631A6BE1
:1031900002F080020092009A01941A6B42F0010240
:1031A0001A631A6B02F001020192019A02941A6BDF
:1031B00042F002021A631B6B03F002030293029BAC
:1031C000124D22464FF45A712846FDF7B7FB0126EF
:1031D00003960F4B0493059403A90E48FDF7DCFA00
:1031E0004FF45A73039304960594069403A9284652
:1031F000FDF7D2FA224621460620FDF74FFA0620B7
:10320000FDF780FA08B070BD0038024000040240AB
:10321000000021100000024010B50A4C0122214696
:103220000948FFF767F82378532B02D0452B04D0C9
:1032300010BD064A01211170F8E7044B00221A70F4
:10324000F6E700BFAC010020E4010020940100205B
:1032500010B5FFF77AFB50B917491848FDF740F948
:10326000B0B117491548FDF73BF9D8B110BD134C63
:1032700020212046FFF7C9FA0D2384F820300A23C5
:1032800084F82130222221460E48FEF7C3FFE3E7EF
:103290000A230E220C490B48FEF7BCFF0B4B012200
:1032A0005A70DEE70A230E2207490648FEF7B2FFEE
:1032B000064B00225A70D9E708000020B001002018
:1032C00028000020F402002000480008940100209B
:1032D00038B5204B5C785B681F4A126C934200DC67
:1032E0005CB91C4B5B681C4A126C9342D4BF002330
:1032F0000123012C19D1C3B938BD0133154A5360DC
:10330000164D002240212846FDF718FB01222021FE
:103310002846FDF713FB012208212846FDF70EFB86
:1033200000210F48FEF79AFCDBE70C4C01224021FC
:103330002046FDF703FB002220212046FDF7FEFA80
:10334000002208212046FDF7F9FA00210448FEF783
:103350009DFCD1E7940100200800002000040240F9
:1033600024020020FEE7000008B50B480B4B036069
:103370004FF4E133436000238360C36003610C2298
:1033800042618361C361FEF716FF00B908BD40F2D8
:103390006F110348FFF7E6FFF402002000440040ED
:1033A0001048000808B50E480E4B03604FF48273B6
:1033B000436000238360C360036143614FF4007284
:1033C00082612022C2610362436283620A23C36274
:1033D000FDF731FE00B908BDF3210348FFF7C2FF36
:1033E00060020020003001401048000808B50B487A
:1033F0000B4B03604FF4E133436000238360C360F1
:1034000003610C2242618361C361FEF7D4FE00B9FF
:1034100008BD4FF4AE710348FFF7A4FFE40100209C
:10342000001001401048000800B591B02748284B13
:10343000036054234360002383606422C2600361FD
:103440004361FEF746FB00282BD100230E930F9318
:103450000EA91E48FEF74AFC40BB60230793642375
:103460000893002209920A920B920C920D9207A9DE
:103470001648FEF775FBF0B9002300930193029301
:10348000039304934FF400520592069369460F4844
:10349000FEF755FCA0B90D4800F0DAF911B05DF85F
:1034A00004FB4FF484710B48FFF75CFF40F20F11EF
:1034B0000848FFF757FF40F21B110648FFF752FF7D
:1034C00040F227110348FFF74DFF00BF2402002000
:1034D000000001401048000800B587B019484FF0BF
:1034E000804303604AF210434360002383604FF43B
:1034F000FA62C2600361FEF7D3FAA0B906A94FF4DD
:10350000805341F8103D0F48FEF73BF980B9202366
:1035100000930023019369460A48FEF7E7FB60B970
:1035200007B05DF804FB4FF49E710748FFF71AFFE0
:103530004FF4A1710448FFF715FF40F2491102480A
:10354000FFF710FFB80200201048000800B595B042
:10355000002201922A4B196C41F0805119641B6CB6
:1035600003F080530193019B029226490B6823F4D8
:10357000404343F400430B600B6803F44043029361
:10358000029B0221089101230B9310230C930E91AF
:103590000F9210934FF4A8731193042312930723EF
:1035A000139308A8FDF7DEF908BB0F23039302214C
:1035B0000491002305934FF480520692079303A8C9
:1035C000FDF708FCB8B9FDF7B1FC0F4BA3FB0030C9
:1035D0008009FDF7A3F80420FDF7B6F80022114694
:1035E0004FF0FF30FDF75AF815B05DF804FBC3212A
:1035F0000648FFF7B7FED1210448FFF7B3FE00BF2E
:103600000038024000700040D34D6210104800089E
:1036100000B597B0FCF7F0FFFFF798FFFFF7AEFD9E
:10362000FFF7A2FEFFF7BEFEFFF7E0FEFFF7FCFE8E
:10363000FFF752FF2C4C012240212046FDF77EF976
:10364000002220212046FDF779F90022082120469A
:10365000FDF774F92548FEF788F8FFF76DFD0122A4
:1036600023492448FEF746FE234D5422291D68466F
:1036700000F0EEF92B684FF400724FF48071204691
:10368000FFF778FC1D4E6C4606F110050FCD0FC4F8
:103690000FCD0FC495E80F0084E80F0096E80F00E7
:1036A000FFF734FDFFF776F90020FFF7CAF8342062
:1036B000FFF766F82020FFF76DF809A3D3E9002390
:1036C0000120FFF71DF8FEF7F7FF0020FEF766FF69
:1036D00000F03F010020FEF7A3FFFEE7AFF30080FC
:1036E000AA4433221100000000040240B802002066
:1036F000AC010020E401002060020020F402002060
:1037000010B582B000240094214B5A6C42F48042E0
:103710005A645A6C02F480420092009A01941A6C26
:1037200042F080521A641B6C03F080530193019B9A
:103730000720FCF7A1FF224621466FF00B00FCF7A3
:10374000ADFF224621466FF00A00FCF7A7FF224694
:1037500021466FF00900FCF7A1FF224621466FF0D9
:103760000400FCF79BFF224621466FF00300FCF7A4
:1037700095FF224621466FF00100FCF78FFF22469D
:1037800021464FF0FF30FCF789FF02B010BD00BFAB
:10379000003802400268114B9A4200D0704700B5D1
:1037A00087B00021009103F584335A6C42F48052B3
:1037B0005A645B6C03F480530093009BE0230193F5
:1037C000022302930391032304930523059301A984
:1037D0000348FCF7E1FF07B05DF804FB003001404F
:1037E000000002400268094B9A4200D0704782B044
:1037F00000230193064B5A6C42F001025A645B6C41
:1038000003F001030193019B02B0704700000140E7
:10381000003802400368B3F1804F00D0704700B514
:1038200083B00021019103F50E331A6C42F00102BE
:103830001A641B6C03F001030193019B0A461C20D0
:10384000FCF72CFF1C20FCF75DFF03B05DF804FBC8
:1038500002680B4B9A4200D0704700B587B04FF416
:1038600080730193022302930023039304930123A3
:10387000059301A90348FCF78FFF07B05DF804FB2F
:10388000000001400000024010B588B00368234AE0
:10389000934204D0224A934225D008B010BD0024A0
:1038A0000194204B5A6C42F010025A645B6C03F096
:1038B00010030193019B4FF4C0630393022304930D
:1038C00001230593032306930723079303A91648AF
:1038D000FCF762FF224621462520FCF7DFFE25206B
:1038E000FCF710FFD9E7002302930E4B1A6C42F449
:1038F00000321A641B6C03F400330293029B0C2306
:1039000003930223049301230593032306930723C0
:10391000079303A90448FCF73FFFBEE700100140EE
:1039200000440040003802400000024070477047E9
:1039300008B5FCF77BFEFCF718FF08BD08B50120B1
:10394000FDF702F808BD000008B50248FDF7A1FF29
:1039500008BD00BFB802002008B50248FEF74CFDC4
:1039600008BD00BFE40100200F49D1F8883043F4BE
:103970007003C1F888300D4B1A6842F001021A60DA
:10398000002098601A6822F0847222F480321A6053
:10399000074A5A601A6822F480221A60D8604FF0F1
:1039A00000638B60704700BF00ED00E0003802400C
:1039B00010300024DFF834D0002103E00C4B5B58BA
:1039C000435004310B480C4B42189A42F6D30B4A31
:1039D00002E0002342F8043B094B9A42F9D3FFF777
:1039E000C3FF00F011F8FFF713FE704700800120BD
:1039F0006448000800000020C0000020C000002033
:103A000038030020FEE7000070B50D4E0D4CA41BDE
:103A1000A4100025A54209D10B4E0C4C00F02EFC41
:103A2000A41BA4100025A54205D170BD56F8253071
:103A300098470135EEE756F8253098470135F2E70B
:103A40005C4800085C4800085C48000860480008C2
:103A500010B5431E0A44914200D110BD11F8014B2C
:103A600003F8014FF7E700000EB400B59CB01DABA2
:103A7000029006906FF000410948079104910949AE
:103A800053F8042B05910068019302A900F066F831
:103A9000029B00221A701CB05DF804EB03B0704763
:103AA0005C0000200802FFFF2DE9F0478E689E426F
:103AB00082460C469046994637D88A8912F4906F10
:103AC00031D0256809696F1A6569022305EB450540
:103AD00095FBF3F509F101033B449D4238BF1D46B8
:103AE000530530D5294600F021FB064650B90C237A
:103AF000CAF80030A38943F04003A3814FF0FF30A0
:103B0000BDE8F0873A462169FFF7A2FFA38923F4B5
:103B1000906343F08003A381266165613E44ED1B01
:103B20002660A5604E464E4500D94E463246414677
:103B3000206800F093FAA3689B1BA36023681E44CF
:103B400026600020DCE72A4600F04AFB06460028F3
:103B5000E2D12169504600F09BFAC8E72DE9F04F09
:103B60001D468B891F069DB080460C4616460FD514
:103B70000B696BB9402100F0D9FA2060206128B9A7
:103B80000C23C8F800304FF0FF30C8E040236361D9
:103B90000023099320238DF8293030238DF82A3013
:103BA00003954FF0010B37463D4615F8013B0BB12D
:103BB000252B3ED1B7EB060A0BD0534632462146A1
:103BC0004046FFF771FF013000F0A480099B534489
:103BD00009933B78002B00F09D8000234FF0FF32CB
:103BE000CDE90523049307938DF853301A932F469C
:103BF000052217F8011B5048FCF78AFC049BD0B93A
:103C0000D90644BF20228DF853201A0744BF2B2227
:103C10008DF853202A782A2A15D0079A2F4600209B
:103C20000A25394611F8013B303B092B4DD9B8B173
:103C30000FE02F46B8E7404A801A0BFA00F018430D
:103C400004903D46D3E7039A111D12680391002AA0
:103C500001DB079204E0524243F00203079204930F
:103C60003B782E2B0CD17B782A2B33D1039B1A1D4A
:103C70001B680392002BB8BF4FF0FF330237059348
:103C80002E4D397803222846FCF742FC38B14023F8
:103C9000401B03FA00F0049B034301370493397877
:103CA00027488DF8281006227E1CFCF731FC0028DE
:103CB00038D0244B13BB039B073323F0070308338F
:103CC0000393099B4B4409936DE705FB02320120E6
:103CD0000F46A6E700230137059319460A25384603
:103CE00010F8012B303A092A03D9002BC8D00591CE
:103CF000C6E705FB012101230746F0E703AB00936C
:103D00002246114B04A94046AFF30080B0F1FF3FBB
:103D10008146D6D1A3895B063FF535AF09981DB022
:103D2000BDE8F08F03AB00932246074B04A9404641
:103D300000F082F8EAE700BF2048000826480008A3
:103D40002A48000800000000A93A00082DE9F047C1
:103D500091461F468A680B69DDF820809342B8BF00
:103D60001346C9F8003091F8432006460C4612B1BC
:103D70000133C9F800302368990642BFD9F80030F2
:103D80000233C9F80030256815F0060507D104F1A3
:103D9000190AE368D9F800209B1AAB4228DC94F892
:103DA00043302268003318BF012392062DD404F15A
:103DB000430239463046C047013020D02368E568C9
:103DC000D9F8002003F00603042B08BFAD1AA3683E
:103DD00022690CBF25EAE57500259342C4BF9B1AF2
:103DE000ED184FF000091A344D451AD1002008E0B3
:103DF0000123524639463046C047013003D14FF0C7
:103E0000FF30BDE8F0870135C3E7E1185A1C3020C8
:103E100081F84300224494F8451082F8431002339D
:103E2000C5E70123224639463046C0470130E6D077
:103E300009F10109D8E700002DE9F04301F1430C35
:103E40000C46097E85B06E291746064698460C9AA0
:103E500000F0B38022D8632936D00AD8002900F0B8
:103E6000B980582900F0838004F1420584F842109B
:103E700032E0642901D06929F6D12068136805066B
:103E800003F104012AD51B681160002B03DA2D22EF
:103E90005B4284F843206F480A2239E0732900F01E
:103EA0009D8008D86F2920D07029DDD1236843F088
:103EB0002003236003E0752917D07829D4D1782313
:103EC00084F84530644855E01368191D1B6811607B
:103ED00004F1420584F8423001238CE01B68116034
:103EE00010F0400F18BF1BB2CFE713682568181DEC
:103EF0001060280601D51B6802E06806FBD51B8808
:103F000054486F2914BF0A220822002184F8431064
:103F10006568A560002DC0F29580216821F004013C
:103F20002160002B3DD1002D40F08E806546082A8F
:103F30000BD12368DB0708D5236962689A42DEBF8C
:103F4000302305F8013C05F1FF35ACEB0503236197
:103F5000CDF800803B4603AA21463046FFF7F6FE27
:103F600001304DD14FF0FF3005B0BDE8F083394846
:103F700084F84510136821681D1D1B6815600A062A
:103F80000BD5CA0744BF41F0200121601BB922684C
:103F900022F0200222601022B7E74D0648BF9BB2F4
:103FA000EFE76546B3FBF2F102FB1133C35C05F8A2
:103FB000013D0B460029F5D1B9E713682568616911
:103FC000181D106028061B6801D5196002E06A06FA
:103FD000FBD51980002323616546B9E71368191DD5
:103FE00011601D68626800212846FCF791FA08B14B
:103FF000401B606063682361002384F84330A7E7B7
:1040000023692A4639463046C0470130AAD0236882
:104010009B0713D4E068039B9842B8BF1846A3E7F8
:1040200001234A4639463046C04701309AD001350F
:10403000E368039A9B1AAB42F2DCEBE7002504F13C
:104040001909F5E7002BACD1037884F8423004F16C
:1040500042056CE73148000842480008884210B524
:1040600001EB020307D8421E99420AD011F8014B16
:1040700002F8014FF8E78342F5D98118D21AD342EA
:1040800000D110BD13F8014D01F8014DF7E7000014
:1040900038B50546002945D051F8043C0C1F002BCB
:1040A000B8BFE41800F0D2F81F4A1368104633B9BD
:1040B000636014602846BDE8384000F0C8B8A342E9
:1040C0000CD921686218934204BF1A685B68636068
:1040D00004BF521822600460ECE713465A680AB124
:1040E000A242FAD919685818A0420BD1206801449D
:1040F000581882421960DDD1106852685A60014434
:104100001960D7E702D90C232B60D3E72068211868
:104110008A4204BF11685268626004BF09182160B6
:104120005C60C7E738BD00BF9C01002070B5CD1CA6
:1041300025F0030508350C2D38BF0C25002D06464B
:1041400001DBA94203D90C233360002070BD00F0CD
:104150007DF8214A1468214691B9204C23681BB987
:10416000304600F063F820602946304600F05EF8E3
:10417000431C24D10C233360304600F068F8E4E798
:104180000B685B1B18D40B2B0FD90B60CD50CC18D0
:10419000304600F05CF804F10B00231D20F007000E
:1041A000C31AD3D05A42E250D0E78C424B6816BFB4
:1041B000636013600C46EBE70C464968CCE7C41C0F
:1041C00024F00304A04205D0211A304600F02EF856
:1041D0000130CFD02560DBE79C010020A00100204A
:1041E000F8B5074614460E4621B91146BDE8F84019
:1041F000FFF79CBF22B9FFF74BFF25462846F8BDC5
:1042000000F026F8A0420FD221463846FFF78EFF75
:1042100005460028F2D031462246FFF719FC314608
:104220003846FFF735FFE9E73546E7E738B5064C8E
:10423000002305460846236000F012F8431C02D113
:10424000236803B12B6038BD3403002070477047EA
:1042500051F8043C181F002BBCBF0B58C018704706
:10426000044A05491368002B08BF0B461844106028
:1042700018467047A401002038030020F8B500BF9D
:10428000F8BC08BC9E467047F8B500BFF8BC08BC37
:044290009E4670478F
:104294000A0B0C0D0E0F100011121314151600004A
:1042A40000000000000000000102030406070809E2
:1042B40000000000010203040D0A2A2A2A2A2A2ADD
:1042C4002A2A2A2A2A2A2A2A2A2A2A2A2A2A2A2A4A
:1042D4002A2A2A2A2A2A2A2A2A2A2A2A2A2A2A2A3A
:1042E4002A2A2A2A2A2A2A2A0D0A00004352433A51
:1042F4000D0A0909456E61626C65642C2032204206
:1043040079746573200D0A004352433A0D0A090972
:10431400456E61626C65642C20312042797465209D
:104324000D0A00004352433A0D0A090944697361B6
:10433400626C6564200D0A00454E41413A0D0A093C
:104344000950303A0925640D0A090950313A092502
:10435400640D0A090950323A0925640D0A09095005
:10436400333A0925640D0A090950343A0925640DC4
:104374000A090950353A0925640D0A00454E5F5271
:1043840058414444523A0D0A090950303A09256407
:104394000D0A090950313A0925640D0A09095032F8
:1043A4003A0925640D0A090950333A0925640D0AAE
:1043B400090950343A0925640D0A090950353A09A6
:1043C40025640D0A0000000053455455505F4157C1
:1043D4003A0D0A09092564206279746573200D0A6F
:1043E4000000000052465F43483A0D0A090925645B
:1043F400204348200D0A0000446174612052617416
:10440400653A0D0A0909324D627073200D0A0000E5
:104414004461746120526174653A0D0A0909314D91
:10442400627073200D0A000052465F5057523A0DD5
:104434000A09092D31386442200D0A0052465F50A2
:1044440057523A0D0A09092D31326442200D0A00EF
:1044540052465F5057523A0D0A09092D36644220DC
:104464000D0A000052465F5057523A0D0A090930AE
:104474006442200D0A00000052585F506970653094
:104484002041646472733A0D0A0909253032582CAC
:10449400253032582C253032582C253032582C25D2
:1044A40030325820200D0A0052585F50697065312F
:1044B4002041646472733A0D0A0909253032582C7C
:1044C400253032582C253032582C253032582C25A2
:1044D40030325820200D0A0052585F5069706532FE
:1044E4002041646472733A0D0A090978782C78784B
:1044F4002C78782C78782C2530325820200D0A001E
:1045040052585F50697065332041646472733A0D88
:104514000A090978782C78782C78782C78782C25E6
:1045240030325820200D0A0052585F5069706534AB
:104534002041646472733A0D0A090978782C7878FA
:104544002C78782C78782C2530325820200D0A00CD
:1045540052585F50697065352041646472733A0D36
:104564000A090978782C78782C78782C78782C2596
:1045740030325820200D0A0054582041646472736C
:104584003A0D0A0909253032582C253032582C2589
:104594003032582C253032582C2530325820200DFA
:1045A4000A00000052585F50575F50303A0D0A0914
:1045B400092564206279746573200D0A00000000E7
:1045C40052585F50575F50313A0D0A09092564204B
:1045D4006279746573200D0A0000000052585F5020
:1045E400575F50323A0D0A090925642062797465CF
:1045F40073200D0A0000000052585F50575F50337B
:104604003A0D0A09092564206279746573200D0A3C
:104614000000000052585F50575F50343A0D0A09A9
:10462400092564206279746573200D0A0000000076
:1046340052585F50575F50353A0D0A0909256420D6
:104644006279746573200D0A0000000044594E50CD
:10465400445F706970653A0D0A090950303A0925BA
:10466400640D0A090950313A0925640D0A090950F3
:10467400323A0925640D0A090950333A0925640DB3
:104684000A090950343A0925640D0A090950353AD2
:104694000925640D0A000000454E5F44504C3A0D54
:1046A4000A0909456E61626C6564200D0A00000008
:1046B400454E5F44504C3A0D0A09094469736162DE
:1046C4006C6564200D0A0000454E5F41434B5F500A
:1046D40041593A0D0A0909456E61626C6564200D01
:1046E4000A000000454E5F41434B5F5041593A0D6B
:1046F4000A090944697361626C6564200D0A00004B
:104704000D0A2D2D2D2D2D2D2D2D2D2D2D2D2D2D18
:104714002D2D2D2D2D2D2D2D2D2D2D0D0A0000008F
:10472400535441545553207265673A0D0A0909528E
:10473400585F44523A090925640D0A090954585F1F
:1047440044533A090925640D0A09094D41585F5239
:10475400543A090925640D0A090952585F505F4EFD
:104764004F3A0925640D0A090954585F46554C4CC3
:104774003A0925640D0A0000434F4E46494720720A
:1047840065673A0D0A09095057525F55503A0909AD
:1047940025640D0A09095052494D5F52583A0925BA
:1047A400640D0A004649464F2053746174757320A2
:1047B4007265673A0D0A090954585F46554C4C3ADC
:1047C400090925640D0A090954585F454D50545987
:1047D4003A090925640D0A090952585F46554C4C9B
:1047E4003A090925640D0A090952585F454D505488
:1047F400593A090925640D0A0000000020202D20E3
:1048040020454E41424C4544200A00002E2E2F5391
:1048140072632F6D61696E2E63000000232D302BAF
:104824002000686C4C0065666745464700303132AD
:104834003334353637383941424344454600303104
:104844003233343536373839616263646566000063
:08485400BCB9FF7F0100000068
:04485C00C50100088A
:04486000A1010008AA
:104864000100000010000000454E41424C45204527
:104874005850455249454E43450000000000000091
:10488400000000000000000044495341424C452010
:10489400455850455249454E43450000000000002C
:1048A40000000000000000001400000000000000F0
:1048B400AA443322110000000024F4006000002008
:1048C40000000000000000000000000000000000E4
:1048D40000000000000000000000000000000000D4
:1048E40000000000000000000000000000000000C4
:1048F40000000000000000000000000000000000B4
:1049040000000000000000000000000000000000A3
:104914000000000000000000000000000000000093
:04000005080039B501
:00000001FF
